{"abi":[{"type":"function","name":"getCount","inputs":[],"outputs":[{"name":"","type":"uint256","internalType":"uint256"}],"stateMutability":"view"},{"type":"function","name":"increment","inputs":[],"outputs":[],"stateMutability":"nonpayable"},{"type":"function","name":"setCount","inputs":[{"name":"_count","type":"uint256","internalType":"uint256"}],"outputs":[],"stateMutability":"nonpayable"},{"type":"event","name":"CountChanged","inputs":[{"name":"newCount","type":"uint256","indexed":false,"internalType":"uint256"}],"anonymous":false}],"bytecode":{"object":"0x6080604052348015600e575f5ffd5b506102428061001c5f395ff3fe608060405234801561000f575f5ffd5b506004361061003f575f3560e01c8063a87d942c14610043578063d09de08a14610061578063d14e62b81461006b575b5f5ffd5b61004b610087565b604051610058919061013a565b60405180910390f35b61006961008f565b005b61008560048036038101906100809190610181565b6100e1565b005b5f5f54905090565b60015f5f8282546100a091906101d9565b925050819055507f0ef4482aceb854636f33f9cd319f9e1cd6fe3aa2e60523f3583c287b893824455f546040516100d7919061013a565b60405180910390a1565b805f819055507f0ef4482aceb854636f33f9cd319f9e1cd6fe3aa2e60523f3583c287b893824455f54604051610117919061013a565b60405180910390a150565b5f819050919050565b61013481610122565b82525050565b5f60208201905061014d5f83018461012b565b92915050565b5f5ffd5b61016081610122565b811461016a575f5ffd5b50565b5f8135905061017b81610157565b92915050565b5f6020828403121561019657610195610153565b5b5f6101a38482850161016d565b91505092915050565b7f4e487b71000000000000000000000000000000000000000000000000000000005f52601160045260245ffd5b5f6101e382610122565b91506101ee83610122565b9250828201905080821115610206576102056101ac565b5b9291505056fea26469706673582212207ff3c4a3a0955bc1116f51c2209bd9098f2f801983c0b0146adff90ab3de2af964736f6c634300081e0033","linkReferences":{}},"methodIdentifiers":{"getCount()":"a87d942c","increment()":"d09de08a","setCount(uint256)":"d14e62b8"},"id":0}