{"abi":[{"type":"constructor","inputs":[],"stateMutability":"nonpayable"},{"type":"function","name":"createProposal","inputs":[{"name":"_description","type":"string","internalType":"string"},{"name":"_durationSeconds","type":"uint64","internalType":"uint64"}],"outputs":[],"stateMutability":"nonpayable"},{"type":"function","name":"deleteProposal","inputs":[{"name":"_proposalId","type":"uint32","internalType":"uint32"}],"outputs":[],"stateMutability":"nonpayable"},{"type":"function","name":"execute","inputs":[{"name":"_proposalId","type":"uint32","internalType":"uint32"}],"outputs":[],"stateMutability":"nonpayable"},{"type":"function","name":"getAllProposals","inputs":[],"outputs":[{"name":"","type":"tuple[]","internalType":"struct MiniDaoVote.ProposalView[]","components":[{"name":"description","type":"string","internalType":"string"},{"name":"id","type":"uint32","internalType":"uint32"},{"name":"deadline","type":"uint64","internalType":"uint64"},{"name":"votesFor","type":"uint64","internalType":"uint64"},{"name":"votesAgainst","type":"uint64","internalType":"uint64"},{"name":"executed","type":"bool","internalType":"bool"},{"name":"hasVoted","type":"bool","internalType":"bool"},{"name":"support","type":"bool","internalType":"bool"}]}],"stateMutability":"view"},{"type":"function","name":"getProposal","inputs":[{"name":"_proposalId","type":"uint32","internalType":"uint32"}],"outputs":[{"name":"id","type":"uint32","internalType":"uint32"},{"name":"description","type":"string","internalType":"string"},{"name":"deadline","type":"uint64","internalType":"uint64"},{"name":"votesFor","type":"uint64","internalType":"uint64"},{"name":"votesAgainst","type":"uint64","internalType":"uint64"},{"name":"executed","type":"bool","internalType":"bool"}],"stateMutability":"view"},{"type":"function","name":"hasVoted","inputs":[{"name":"_proposalId","type":"uint32","internalType":"uint32"},{"name":"_voter","type":"address","internalType":"address"}],"outputs":[{"name":"","type":"bool","internalType":"bool"}],"stateMutability":"view"},{"type":"function","name":"owner","inputs":[],"outputs":[{"name":"","type":"address","internalType":"address"}],"stateMutability":"view"},{"type":"function","name":"proposalCount","inputs":[],"outputs":[{"name":"","type":"uint32","internalType":"uint32"}],"stateMutability":"view"},{"type":"function","name":"proposals","inputs":[{"name":"","type":"uint32","internalType":"uint32"}],"outputs":[{"name":"description","type":"string","internalType":"string"},{"name":"id","type":"uint32","internalType":"uint32"},{"name":"deadline","type":"uint64","internalType":"uint64"},{"name":"votesFor","type":"uint64","internalType":"uint64"},{"name":"votesAgainst","type":"uint64","internalType":"uint64"},{"name":"executed","type":"bool","internalType":"bool"}],"stateMutability":"view"},{"type":"function","name":"vote","inputs":[{"name":"_proposalId","type":"uint32","internalType":"uint32"},{"name":"_support","type":"bool","internalType":"bool"}],"outputs":[],"stateMutability":"nonpayable"},{"type":"event","name":"ProposalCreated","inputs":[{"name":"id","type":"uint32","indexed":false,"internalType":"uint32"},{"name":"description","type":"string","indexed":false,"internalType":"string"},{"name":"deadline","type":"uint64","indexed":false,"internalType":"uint64"}],"anonymous":false},{"type":"event","name":"ProposalExecuted","inputs":[{"name":"proposalId","type":"uint32","indexed":true,"internalType":"uint32"},{"name":"passed","type":"bool","indexed":false,"internalType":"bool"}],"anonymous":false},{"type":"event","name":"VoteCast","inputs":[{"name":"voter","type":"address","indexed":true,"internalType":"address"},{"name":"proposalId","type":"uint32","indexed":true,"internalType":"uint32"},{"name":"support","type":"bool","indexed":false,"internalType":"bool"}],"anonymous":false}],"bytecode":{"object":"0x6080604052348015600e575f5ffd5b50335f5f6101000a81548173ffffffffffffffffffffffffffffffffffffffff021916908373ffffffffffffffffffffffffffffffffffffffff160217905550611cc28061005b5f395ff3fe608060405234801561000f575f5ffd5b506004361061009c575f3560e01c8063c4c2e70211610064578063c4c2e70214610160578063cceb68f51461017c578063d3c22b381461019a578063da35c664146101ca578063e740993c146101e85761009c565b8063114f00ab146100a05780632a4910ab146100d5578063548e02c21461010a57806377cfd551146101265780638da5cb5b14610142575b5f5ffd5b6100ba60048036038101906100b59190610fcb565b610204565b6040516100cc969594939291906110b1565b60405180910390f35b6100ef60048036038101906100ea9190610fcb565b61033f565b60405161010196959493929190611117565b60405180910390f35b610124600480360381019061011f91906112d3565b610455565b005b610140600480360381019061013b9190611357565b6105ad565b005b61014a610862565b60405161015791906113d4565b60405180910390f35b61017a60048036038101906101759190610fcb565b610886565b005b610184610a07565b60405161019191906115ca565b60405180910390f35b6101b460048036038101906101af9190611614565b610cfc565b6040516101c19190611652565b60405180910390f35b6101d2610d72565b6040516101df919061166b565b60405180910390f35b61020260048036038101906101fd9190610fcb565b610d87565b005b5f60605f5f5f5f5f60015f8963ffffffff1663ffffffff1681526020019081526020015f209050806001015f9054906101000a900463ffffffff16815f018260010160049054906101000a900467ffffffffffffffff1683600101600c9054906101000a900467ffffffffffffffff168460010160149054906101000a900467ffffffffffffffff1685600101601c9054906101000a900460ff168480546102ab906116b1565b80601f01602080910402602001604051908101604052809291908181526020018280546102d7906116b1565b80156103225780601f106102f957610100808354040283529160200191610322565b820191905f5260205f20905b81548152906001019060200180831161030557829003601f168201915b505050505094509650965096509650965096505091939550919395565b6001602052805f5260405f205f91509050805f01805461035e906116b1565b80601f016020809104026020016040519081016040528092919081815260200182805461038a906116b1565b80156103d55780601f106103ac576101008083540402835291602001916103d5565b820191905f5260205f20905b8154815290600101906020018083116103b857829003601f168201915b505050505090806001015f9054906101000a900463ffffffff16908060010160049054906101000a900467ffffffffffffffff169080600101600c9054906101000a900467ffffffffffffffff16908060010160149054906101000a900467ffffffffffffffff169080600101601c9054906101000a900460ff16905086565b5f601481819054906101000a900463ffffffff168092919060010191906101000a81548163ffffffff021916908363ffffffff160217905550505f60015f5f60149054906101000a900463ffffffff1663ffffffff1663ffffffff1681526020019081526020015f2090505f60149054906101000a900463ffffffff16816001015f6101000a81548163ffffffff021916908363ffffffff16021790555082815f019081610503919061188a565b508167ffffffffffffffff164261051a9190611986565b8160010160046101000a81548167ffffffffffffffff021916908367ffffffffffffffff1602179055507f9906cf1ce9e303c05dd54b761ad2d533d55a900da2605dcb1e703c87387f37045f60149054906101000a900463ffffffff16848360010160049054906101000a900467ffffffffffffffff166040516105a0939291906119b9565b60405180910390a1505050565b5f60015f8463ffffffff1663ffffffff1681526020019081526020015f2090508060010160049054906101000a900467ffffffffffffffff1667ffffffffffffffff164210610631576040517f08c379a000000000000000000000000000000000000000000000000000000000815260040161062890611a3f565b60405180910390fd5b806002015f3373ffffffffffffffffffffffffffffffffffffffff1673ffffffffffffffffffffffffffffffffffffffff1681526020019081526020015f205f9054906101000a900460ff16156106bd576040517f08c379a00000000000000000000000000000000000000000000000000000000081526004016106b490611aa7565b60405180910390fd5b6001816002015f3373ffffffffffffffffffffffffffffffffffffffff1673ffffffffffffffffffffffffffffffffffffffff1681526020019081526020015f205f6101000a81548160ff02191690831515021790555081816003015f3373ffffffffffffffffffffffffffffffffffffffff1673ffffffffffffffffffffffffffffffffffffffff1681526020019081526020015f205f6101000a81548160ff02191690831515021790555081156107be5780600101600c81819054906101000a900467ffffffffffffffff168092919060010191906101000a81548167ffffffffffffffff021916908367ffffffffffffffff16021790555050610808565b80600101601481819054906101000a900467ffffffffffffffff168092919060010191906101000a81548167ffffffffffffffff021916908367ffffffffffffffff160217905550505b8263ffffffff163373ffffffffffffffffffffffffffffffffffffffff167f13c49a608c9f9ed0aa007a0424a4f562a2bcb9c27c559c43416e6ad19d8f4441846040516108559190611652565b60405180910390a3505050565b5f5f9054906101000a900473ffffffffffffffffffffffffffffffffffffffff1681565b5f60015f8363ffffffff1663ffffffff1681526020019081526020015f2090508060010160049054906101000a900467ffffffffffffffff1667ffffffffffffffff1642101561090b576040517f08c379a000000000000000000000000000000000000000000000000000000000815260040161090290611b0f565b60405180910390fd5b80600101601c9054906101000a900460ff161561095d576040517f08c379a000000000000000000000000000000000000000000000000000000000815260040161095490611b77565b60405180910390fd5b600181600101601c6101000a81548160ff0219169083151502179055505f8160010160149054906101000a900467ffffffffffffffff1667ffffffffffffffff1682600101600c9054906101000a900467ffffffffffffffff1667ffffffffffffffff161190508263ffffffff167fae713b600c2462a1606761dafb55fccf664c4d6e4be87805a5d3d6d7f9328d5d826040516109fa9190611652565b60405180910390a2505050565b60605f5f60149054906101000a900463ffffffff1663ffffffff1667ffffffffffffffff811115610a3b57610a3a611185565b5b604051908082528060200260200182016040528015610a7457816020015b610a61610ec1565b815260200190600190039081610a595790505b5090505f600190505b5f60149054906101000a900463ffffffff1663ffffffff168163ffffffff1611610cf4575f60015f8363ffffffff1663ffffffff1681526020019081526020015f209050604051806101000160405280825f018054610adb906116b1565b80601f0160208091040260200160405190810160405280929190818152602001828054610b07906116b1565b8015610b525780601f10610b2957610100808354040283529160200191610b52565b820191905f5260205f20905b815481529060010190602001808311610b3557829003601f168201915b50505050508152602001826001015f9054906101000a900463ffffffff1663ffffffff1681526020018260010160049054906101000a900467ffffffffffffffff1667ffffffffffffffff16815260200182600101600c9054906101000a900467ffffffffffffffff1667ffffffffffffffff1681526020018260010160149054906101000a900467ffffffffffffffff1667ffffffffffffffff16815260200182600101601c9054906101000a900460ff1615158152602001826002015f3373ffffffffffffffffffffffffffffffffffffffff1673ffffffffffffffffffffffffffffffffffffffff1681526020019081526020015f205f9054906101000a900460ff1615158152602001826003015f3373ffffffffffffffffffffffffffffffffffffffff1673ffffffffffffffffffffffffffffffffffffffff1681526020019081526020015f205f9054906101000a900460ff16151581525083600184610cbe9190611b95565b63ffffffff1681518110610cd557610cd4611bcc565b5b6020026020010181905250508080610cec90611bf9565b915050610a7d565b508091505090565b5f5f60015f8563ffffffff1663ffffffff1681526020019081526020015f209050806002015f8473ffffffffffffffffffffffffffffffffffffffff1673ffffffffffffffffffffffffffffffffffffffff1681526020019081526020015f205f9054906101000a900460ff1691505092915050565b5f60149054906101000a900463ffffffff1681565b5f5f9054906101000a900473ffffffffffffffffffffffffffffffffffffffff1673ffffffffffffffffffffffffffffffffffffffff163373ffffffffffffffffffffffffffffffffffffffff1614610e15576040517f08c379a0000000000000000000000000000000000000000000000000000000008152600401610e0c90611c6e565b60405180910390fd5b60015f8263ffffffff1663ffffffff1681526020019081526020015f205f5f82015f610e419190610f29565b600182015f6101000a81549063ffffffff02191690556001820160046101000a81549067ffffffffffffffff021916905560018201600c6101000a81549067ffffffffffffffff02191690556001820160146101000a81549067ffffffffffffffff021916905560018201601c6101000a81549060ff0219169055505050565b604051806101000160405280606081526020015f63ffffffff1681526020015f67ffffffffffffffff1681526020015f67ffffffffffffffff1681526020015f67ffffffffffffffff1681526020015f151581526020015f151581526020015f151581525090565b508054610f35906116b1565b5f825580601f10610f465750610f63565b601f0160209004905f5260205f2090810190610f629190610f66565b5b50565b5b80821115610f7d575f815f905550600101610f67565b5090565b5f604051905090565b5f5ffd5b5f5ffd5b5f63ffffffff82169050919050565b610faa81610f92565b8114610fb4575f5ffd5b50565b5f81359050610fc581610fa1565b92915050565b5f60208284031215610fe057610fdf610f8a565b5b5f610fed84828501610fb7565b91505092915050565b610fff81610f92565b82525050565b5f81519050919050565b5f82825260208201905092915050565b8281835e5f83830152505050565b5f601f19601f8301169050919050565b5f61104782611005565b611051818561100f565b935061106181856020860161101f565b61106a8161102d565b840191505092915050565b5f67ffffffffffffffff82169050919050565b61109181611075565b82525050565b5f8115159050919050565b6110ab81611097565b82525050565b5f60c0820190506110c45f830189610ff6565b81810360208301526110d6818861103d565b90506110e56040830187611088565b6110f26060830186611088565b6110ff6080830185611088565b61110c60a08301846110a2565b979650505050505050565b5f60c0820190508181035f83015261112f818961103d565b905061113e6020830188610ff6565b61114b6040830187611088565b6111586060830186611088565b6111656080830185611088565b61117260a08301846110a2565b979650505050505050565b5f5ffd5b5f5ffd5b7f4e487b71000000000000000000000000000000000000000000000000000000005f52604160045260245ffd5b6111bb8261102d565b810181811067ffffffffffffffff821117156111da576111d9611185565b5b80604052505050565b5f6111ec610f81565b90506111f882826111b2565b919050565b5f67ffffffffffffffff82111561121757611216611185565b5b6112208261102d565b9050602081019050919050565b828183375f83830152505050565b5f61124d611248846111fd565b6111e3565b90508281526020810184848401111561126957611268611181565b5b61127484828561122d565b509392505050565b5f82601f8301126112905761128f61117d565b5b81356112a084826020860161123b565b91505092915050565b6112b281611075565b81146112bc575f5ffd5b50565b5f813590506112cd816112a9565b92915050565b5f5f604083850312156112e9576112e8610f8a565b5b5f83013567ffffffffffffffff81111561130657611305610f8e565b5b6113128582860161127c565b9250506020611323858286016112bf565b9150509250929050565b61133681611097565b8114611340575f5ffd5b50565b5f813590506113518161132d565b92915050565b5f5f6040838503121561136d5761136c610f8a565b5b5f61137a85828601610fb7565b925050602061138b85828601611343565b9150509250929050565b5f73ffffffffffffffffffffffffffffffffffffffff82169050919050565b5f6113be82611395565b9050919050565b6113ce816113b4565b82525050565b5f6020820190506113e75f8301846113c5565b92915050565b5f81519050919050565b5f82825260208201905092915050565b5f819050602082019050919050565b5f82825260208201905092915050565b5f61143082611005565b61143a8185611416565b935061144a81856020860161101f565b6114538161102d565b840191505092915050565b61146781610f92565b82525050565b61147681611075565b82525050565b61148581611097565b82525050565b5f61010083015f8301518482035f8601526114a68282611426565b91505060208301516114bb602086018261145e565b5060408301516114ce604086018261146d565b5060608301516114e1606086018261146d565b5060808301516114f4608086018261146d565b5060a083015161150760a086018261147c565b5060c083015161151a60c086018261147c565b5060e083015161152d60e086018261147c565b508091505092915050565b5f611543838361148b565b905092915050565b5f602082019050919050565b5f611561826113ed565b61156b81856113f7565b93508360208202850161157d85611407565b805f5b858110156115b857848403895281516115998582611538565b94506115a48361154b565b925060208a01995050600181019050611580565b50829750879550505050505092915050565b5f6020820190508181035f8301526115e28184611557565b905092915050565b6115f3816113b4565b81146115fd575f5ffd5b50565b5f8135905061160e816115ea565b92915050565b5f5f6040838503121561162a57611629610f8a565b5b5f61163785828601610fb7565b925050602061164885828601611600565b9150509250929050565b5f6020820190506116655f8301846110a2565b92915050565b5f60208201905061167e5f830184610ff6565b92915050565b7f4e487b71000000000000000000000000000000000000000000000000000000005f52602260045260245ffd5b5f60028204905060018216806116c857607f821691505b6020821081036116db576116da611684565b5b50919050565b5f819050815f5260205f209050919050565b5f6020601f8301049050919050565b5f82821b905092915050565b5f6008830261173d7fffffffffffffffffffffffffffffffffffffffffffffffffffffffffffffffff82611702565b6117478683611702565b95508019841693508086168417925050509392505050565b5f819050919050565b5f819050919050565b5f61178b6117866117818461175f565b611768565b61175f565b9050919050565b5f819050919050565b6117a483611771565b6117b86117b082611792565b84845461170e565b825550505050565b5f5f905090565b6117cf6117c0565b6117da81848461179b565b505050565b5b818110156117fd576117f25f826117c7565b6001810190506117e0565b5050565b601f82111561184257611813816116e1565b61181c846116f3565b8101602085101561182b578190505b61183f611837856116f3565b8301826117df565b50505b505050565b5f82821c905092915050565b5f6118625f1984600802611847565b1980831691505092915050565b5f61187a8383611853565b9150826002028217905092915050565b61189382611005565b67ffffffffffffffff8111156118ac576118ab611185565b5b6118b682546116b1565b6118c1828285611801565b5f60209050601f8311600181146118f2575f84156118e0578287015190505b6118ea858261186f565b865550611951565b601f198416611900866116e1565b5f5b8281101561192757848901518255600182019150602085019450602081019050611902565b868310156119445784890151611940601f891682611853565b8355505b6001600288020188555050505b505050505050565b7f4e487b71000000000000000000000000000000000000000000000000000000005f52601160045260245ffd5b5f6119908261175f565b915061199b8361175f565b92508282019050808211156119b3576119b2611959565b5b92915050565b5f6060820190506119cc5f830186610ff6565b81810360208301526119de818561103d565b90506119ed6040830184611088565b949350505050565b7f566f74696e6720656e64656400000000000000000000000000000000000000005f82015250565b5f611a29600c8361100f565b9150611a34826119f5565b602082019050919050565b5f6020820190508181035f830152611a5681611a1d565b9050919050565b7f416c726561647920766f746564000000000000000000000000000000000000005f82015250565b5f611a91600d8361100f565b9150611a9c82611a5d565b602082019050919050565b5f6020820190508181035f830152611abe81611a85565b9050919050565b7f4e6f7420656e64656420796574000000000000000000000000000000000000005f82015250565b5f611af9600d8361100f565b9150611b0482611ac5565b602082019050919050565b5f6020820190508181035f830152611b2681611aed565b9050919050565b7f416c7265616479206578656375746564000000000000000000000000000000005f82015250565b5f611b6160108361100f565b9150611b6c82611b2d565b602082019050919050565b5f6020820190508181035f830152611b8e81611b55565b9050919050565b5f611b9f82610f92565b9150611baa83610f92565b9250828203905063ffffffff811115611bc657611bc5611959565b5b92915050565b7f4e487b71000000000000000000000000000000000000000000000000000000005f52603260045260245ffd5b5f611c0382610f92565b915063ffffffff8203611c1957611c18611959565b5b600182019050919050565b7f4e6f74206f776e657200000000000000000000000000000000000000000000005f82015250565b5f611c5860098361100f565b9150611c6382611c24565b602082019050919050565b5f6020820190508181035f830152611c8581611c4c565b905091905056fea26469706673582212203449e0ea5d7c6c511c8077c2ddebdb8c76712f8473000f05670bdfd5228bc12f64736f6c634300081e0033","linkReferences":{}},"methodIdentifiers":{"createProposal(string,uint64)":"548e02c2","deleteProposal(uint32)":"e740993c","execute(uint32)":"c4c2e702","getAllProposals()":"cceb68f5","getProposal(uint32)":"114f00ab","hasVoted(uint32,address)":"d3c22b38","owner()":"8da5cb5b","proposalCount()":"da35c664","proposals(uint32)":"2a4910ab","vote(uint32,bool)":"77cfd551"},"id":1}